{
  "contractName": "Stakingpool",
  "abi": [
    {
      "anonymous": false,
      "inputs": [
        {
          "indexed": false,
          "internalType": "address",
          "name": "sender",
          "type": "address"
        },
        {
          "indexed": false,
          "internalType": "uint256",
          "name": "amount",
          "type": "uint256"
        }
      ],
      "name": "NotifyStaked",
      "type": "event"
    },
    {
      "anonymous": false,
      "inputs": [
        {
          "indexed": false,
          "internalType": "address",
          "name": "sender",
          "type": "address"
        },
        {
          "indexed": false,
          "internalType": "uint256",
          "name": "amount",
          "type": "uint256"
        }
      ],
      "name": "NotifyUnStaked",
      "type": "event"
    },
    {
      "anonymous": false,
      "inputs": [
        {
          "indexed": false,
          "internalType": "address",
          "name": "sender",
          "type": "address"
        },
        {
          "indexed": false,
          "internalType": "uint256",
          "name": "Balance",
          "type": "uint256"
        }
      ],
      "name": "Notifyclaimed",
      "type": "event"
    },
    {
      "anonymous": false,
      "inputs": [
        {
          "indexed": false,
          "internalType": "address",
          "name": "account",
          "type": "address"
        }
      ],
      "name": "Paused",
      "type": "event"
    },
    {
      "anonymous": false,
      "inputs": [
        {
          "indexed": false,
          "internalType": "address",
          "name": "account",
          "type": "address"
        }
      ],
      "name": "Unpaused",
      "type": "event"
    },
    {
      "inputs": [
        {
          "internalType": "address",
          "name": "",
          "type": "address"
        }
      ],
      "name": "DROI",
      "outputs": [
        {
          "internalType": "uint256",
          "name": "",
          "type": "uint256"
        }
      ],
      "stateMutability": "view",
      "type": "function",
      "constant": true
    },
    {
      "inputs": [],
      "name": "MCF",
      "outputs": [
        {
          "internalType": "uint256",
          "name": "",
          "type": "uint256"
        }
      ],
      "stateMutability": "view",
      "type": "function",
      "constant": true
    },
    {
      "inputs": [],
      "name": "MCFToken",
      "outputs": [
        {
          "internalType": "contract IERC20",
          "name": "",
          "type": "address"
        }
      ],
      "stateMutability": "view",
      "type": "function",
      "constant": true
    },
    {
      "inputs": [],
      "name": "MCH",
      "outputs": [
        {
          "internalType": "uint256",
          "name": "",
          "type": "uint256"
        }
      ],
      "stateMutability": "view",
      "type": "function",
      "constant": true
    },
    {
      "inputs": [],
      "name": "MCHToken",
      "outputs": [
        {
          "internalType": "contract IERC20",
          "name": "",
          "type": "address"
        }
      ],
      "stateMutability": "view",
      "type": "function",
      "constant": true
    },
    {
      "inputs": [
        {
          "internalType": "address",
          "name": "",
          "type": "address"
        }
      ],
      "name": "MROI",
      "outputs": [
        {
          "internalType": "uint256",
          "name": "",
          "type": "uint256"
        }
      ],
      "stateMutability": "view",
      "type": "function",
      "constant": true
    },
    {
      "inputs": [
        {
          "internalType": "address",
          "name": "",
          "type": "address"
        }
      ],
      "name": "ROI",
      "outputs": [
        {
          "internalType": "uint256",
          "name": "",
          "type": "uint256"
        }
      ],
      "stateMutability": "view",
      "type": "function",
      "constant": true
    },
    {
      "inputs": [],
      "name": "StakePeriod",
      "outputs": [
        {
          "internalType": "uint256",
          "name": "",
          "type": "uint256"
        }
      ],
      "stateMutability": "view",
      "type": "function",
      "constant": true
    },
    {
      "inputs": [
        {
          "internalType": "address",
          "name": "",
          "type": "address"
        }
      ],
      "name": "claimable",
      "outputs": [
        {
          "internalType": "uint256",
          "name": "",
          "type": "uint256"
        }
      ],
      "stateMutability": "view",
      "type": "function",
      "constant": true
    },
    {
      "inputs": [
        {
          "internalType": "address",
          "name": "",
          "type": "address"
        }
      ],
      "name": "currentstakeyields",
      "outputs": [
        {
          "internalType": "uint256",
          "name": "",
          "type": "uint256"
        }
      ],
      "stateMutability": "view",
      "type": "function",
      "constant": true
    },
    {
      "inputs": [],
      "name": "paused",
      "outputs": [
        {
          "internalType": "bool",
          "name": "",
          "type": "bool"
        }
      ],
      "stateMutability": "view",
      "type": "function",
      "constant": true
    },
    {
      "inputs": [
        {
          "internalType": "address",
          "name": "",
          "type": "address"
        }
      ],
      "name": "stakedBalances",
      "outputs": [
        {
          "internalType": "uint256",
          "name": "",
          "type": "uint256"
        }
      ],
      "stateMutability": "view",
      "type": "function",
      "constant": true
    },
    {
      "inputs": [
        {
          "internalType": "address",
          "name": "",
          "type": "address"
        }
      ],
      "name": "stakedShares",
      "outputs": [
        {
          "internalType": "uint256",
          "name": "",
          "type": "uint256"
        }
      ],
      "stateMutability": "view",
      "type": "function",
      "constant": true
    },
    {
      "inputs": [],
      "name": "totalStakedMcH",
      "outputs": [
        {
          "internalType": "uint256",
          "name": "",
          "type": "uint256"
        }
      ],
      "stateMutability": "view",
      "type": "function",
      "constant": true
    },
    {
      "inputs": [],
      "name": "totalStakedamount",
      "outputs": [
        {
          "internalType": "uint256",
          "name": "",
          "type": "uint256"
        }
      ],
      "stateMutability": "view",
      "type": "function",
      "constant": true
    },
    {
      "inputs": [
        {
          "internalType": "uint256",
          "name": "",
          "type": "uint256"
        }
      ],
      "name": "users",
      "outputs": [
        {
          "internalType": "address",
          "name": "",
          "type": "address"
        }
      ],
      "stateMutability": "view",
      "type": "function",
      "constant": true
    },
    {
      "inputs": [
        {
          "internalType": "address",
          "name": "",
          "type": "address"
        }
      ],
      "name": "vested",
      "outputs": [
        {
          "internalType": "uint256",
          "name": "",
          "type": "uint256"
        }
      ],
      "stateMutability": "view",
      "type": "function",
      "constant": true
    },
    {
      "inputs": [
        {
          "internalType": "address",
          "name": "_MCHToken",
          "type": "address"
        },
        {
          "internalType": "address",
          "name": "_MCFToken",
          "type": "address"
        }
      ],
      "name": "Initialize",
      "outputs": [],
      "stateMutability": "nonpayable",
      "type": "function"
    },
    {
      "inputs": [
        {
          "internalType": "uint256",
          "name": "amount",
          "type": "uint256"
        }
      ],
      "name": "Approvestake",
      "outputs": [],
      "stateMutability": "nonpayable",
      "type": "function"
    }
  ],
  "bytecode": "0x608060405234801561001057600080fd5b50600180819055506000600260006101000a81548160ff0219169083151502179055506112a8806100426000396000f3fe608060405234801561001057600080fd5b50600436106101215760003560e01c80635c975abb116100ad57806380ededfa1161007157806380ededfa14610346578063ce4483f914610364578063cfa6d6e314610394578063dc90fed0146103b2578063e893a8a1146103ce57610121565b80635c975abb1461028c57806367719223146102aa5780637102b728146102da578063789982c01461030a5780637c5d5ad21461032857610121565b806325d8dda5116100f457806325d8dda5146101d25780632bb4cb88146101f0578063365b98b21461020e578063402914f51461023e57806352a342a41461026e57610121565b8063091b63c1146101265780630eb0c8f31461014257806313677f94146101725780631460fa87146101a2575b600080fd5b610140600480360381019061013b9190610dfa565b6103fe565b005b61015c60048036038101906101579190610d6c565b61086e565b6040516101699190611056565b60405180910390f35b61018c60048036038101906101879190610d6c565b610886565b6040516101999190611056565b60405180910390f35b6101bc60048036038101906101b79190610d6c565b61089e565b6040516101c99190611056565b60405180910390f35b6101da6108b6565b6040516101e79190610fdb565b60405180910390f35b6101f86108dc565b6040516102059190611056565b60405180910390f35b61022860048036038101906102239190610dfa565b6108e2565b6040516102359190610f45565b60405180910390f35b61025860048036038101906102539190610d6c565b610921565b6040516102659190611056565b60405180910390f35b610276610939565b6040516102839190611056565b60405180910390f35b61029461093f565b6040516102a19190610fc0565b60405180910390f35b6102c460048036038101906102bf9190610d6c565b610956565b6040516102d19190611056565b60405180910390f35b6102f460048036038101906102ef9190610d6c565b61096e565b6040516103019190611056565b60405180910390f35b610312610986565b60405161031f9190611056565b60405180910390f35b61033061098c565b60405161033d9190610fdb565b60405180910390f35b61034e6109b2565b60405161035b9190611056565b60405180910390f35b61037e60048036038101906103799190610d6c565b6109b8565b60405161038b9190611056565b60405180910390f35b61039c6109d0565b6040516103a99190611056565b60405180910390f35b6103cc60048036038101906103c79190610d95565b6109d6565b005b6103e860048036038101906103e39190610d6c565b610b7e565b6040516103f59190611056565b60405180910390f35b61040661093f565b15610446576040517f08c379a000000000000000000000000000000000000000000000000000000000815260040161043d90610ff6565b60405180910390fd5b60008111610489576040517f08c379a000000000000000000000000000000000000000000000000000000000815260040161048090611016565b60405180910390fd5b600560009054906101000a900473ffffffffffffffffffffffffffffffffffffffff1673ffffffffffffffffffffffffffffffffffffffff166323b872dd3330846040518463ffffffff1660e01b81526004016104e893929190610f60565b602060405180830381600087803b15801561050257600080fd5b505af1158015610516573d6000803e3d6000fd5b505050506040513d601f19601f8201168201806040525081019061053a9190610dd1565b5061058d81600860003373ffffffffffffffffffffffffffffffffffffffff1673ffffffffffffffffffffffffffffffffffffffff16815260200190815260200160002054610b9690919063ffffffff16565b600860003373ffffffffffffffffffffffffffffffffffffffff1673ffffffffffffffffffffffffffffffffffffffff16815260200190815260200160002081905550600061064b6105ea83600a54610b9690919063ffffffff16565b61063d6064600860003373ffffffffffffffffffffffffffffffffffffffff1673ffffffffffffffffffffffffffffffffffffffff16815260200190815260200160002054610bac90919063ffffffff16565b610bc290919063ffffffff16565b905061069f81600960003373ffffffffffffffffffffffffffffffffffffffff1673ffffffffffffffffffffffffffffffffffffffff16815260200190815260200160002054610b9690919063ffffffff16565b600960003373ffffffffffffffffffffffffffffffffffffffff1673ffffffffffffffffffffffffffffffffffffffff16815260200190815260200160002081905550601760003373ffffffffffffffffffffffffffffffffffffffff1673ffffffffffffffffffffffffffffffffffffffff16815260200190815260200160002060009054906101000a900460ff166107815761073c33610bd8565b42601560003373ffffffffffffffffffffffffffffffffffffffff1673ffffffffffffffffffffffffffffffffffffffff168152602001908152602001600020819055505b6001601860003373ffffffffffffffffffffffffffffffffffffffff1673ffffffffffffffffffffffffffffffffffffffff16815260200190815260200160002060006101000a81548160ff0219169083151502179055506001601760003373ffffffffffffffffffffffffffffffffffffffff1673ffffffffffffffffffffffffffffffffffffffff16815260200190815260200160002060006101000a81548160ff0219169083151502179055507fc56736dcf0d4f5e82a639a9147b6843027755e445f6c6379e64fafaf677fc95f3383604051610862929190610f97565b60405180910390a15050565b60096020528060005260406000206000915090505481565b60106020528060005260406000206000915090505481565b60086020528060005260406000206000915090505481565b600560009054906101000a900473ffffffffffffffffffffffffffffffffffffffff1681565b600c5481565b601381815481106108f257600080fd5b906000526020600020016000915054906101000a900473ffffffffffffffffffffffffffffffffffffffff1681565b60116020528060005260406000206000915090505481565b600d5481565b6000600260009054906101000a900460ff16905090565b60076020528060005260406000206000915090505481565b60126020528060005260406000206000915090505481565b600a5481565b600660009054906101000a900473ffffffffffffffffffffffffffffffffffffffff1681565b60035481565b600f6020528060005260406000206000915090505481565b600b5481565b600060019054906101000a900460ff16806109fc575060008054906101000a900460ff16155b610a3b576040517f08c379a0000000000000000000000000000000000000000000000000000000008152600401610a3290611036565b60405180910390fd5b60008060019054906101000a900460ff161590508015610a8b576001600060016101000a81548160ff02191690831515021790555060016000806101000a81548160ff0219169083151502179055505b82600560006101000a81548173ffffffffffffffffffffffffffffffffffffffff021916908373ffffffffffffffffffffffffffffffffffffffff16021790555081600660006101000a81548173ffffffffffffffffffffffffffffffffffffffff021916908373ffffffffffffffffffffffffffffffffffffffff16021790555033600460006101000a81548173ffffffffffffffffffffffffffffffffffffffff021916908373ffffffffffffffffffffffffffffffffffffffff160217905550620e80806003819055508015610b795760008060016101000a81548160ff0219169083151502179055505b505050565b600e6020528060005260406000206000915090505481565b60008183610ba49190611082565b905092915050565b60008183610bba9190611109565b905092915050565b60008183610bd091906110d8565b905092915050565b6000610be382610c53565b50905080610c4f576013829080600181540180825580915050600190039060005260206000200160009091909190916101000a81548173ffffffffffffffffffffffffffffffffffffffff021916908373ffffffffffffffffffffffffffffffffffffffff1602179055505b5050565b60008060005b601380549050811015610d1f5760138181548110610ca0577f4e487b7100000000000000000000000000000000000000000000000000000000600052603260045260246000fd5b9060005260206000200160009054906101000a900473ffffffffffffffffffffffffffffffffffffffff1673ffffffffffffffffffffffffffffffffffffffff168473ffffffffffffffffffffffffffffffffffffffff161415610d0b576001819250925050610d28565b600181610d189190611082565b9050610c59565b50600080915091505b915091565b600081359050610d3c8161122d565b92915050565b600081519050610d5181611244565b92915050565b600081359050610d668161125b565b92915050565b600060208284031215610d7e57600080fd5b6000610d8c84828501610d2d565b91505092915050565b60008060408385031215610da857600080fd5b6000610db685828601610d2d565b9250506020610dc785828601610d2d565b9150509250929050565b600060208284031215610de357600080fd5b6000610df184828501610d42565b91505092915050565b600060208284031215610e0c57600080fd5b6000610e1a84828501610d57565b91505092915050565b610e2c81611163565b82525050565b610e3b81611175565b82525050565b610e4a816111ab565b82525050565b6000610e5d601083611071565b91507f5061757361626c653a20706175736564000000000000000000000000000000006000830152602082019050919050565b6000610e9d600e83611071565b91507f63616e6e6f74206265207a65726f0000000000000000000000000000000000006000830152602082019050919050565b6000610edd602e83611071565b91507f496e697469616c697a61626c653a20636f6e747261637420697320616c72656160008301527f647920696e697469616c697a65640000000000000000000000000000000000006020830152604082019050919050565b610f3f816111a1565b82525050565b6000602082019050610f5a6000830184610e23565b92915050565b6000606082019050610f756000830186610e23565b610f826020830185610e23565b610f8f6040830184610f36565b949350505050565b6000604082019050610fac6000830185610e23565b610fb96020830184610f36565b9392505050565b6000602082019050610fd56000830184610e32565b92915050565b6000602082019050610ff06000830184610e41565b92915050565b6000602082019050818103600083015261100f81610e50565b9050919050565b6000602082019050818103600083015261102f81610e90565b9050919050565b6000602082019050818103600083015261104f81610ed0565b9050919050565b600060208201905061106b6000830184610f36565b92915050565b600082825260208201905092915050565b600061108d826111a1565b9150611098836111a1565b9250827fffffffffffffffffffffffffffffffffffffffffffffffffffffffffffffffff038211156110cd576110cc6111cf565b5b828201905092915050565b60006110e3826111a1565b91506110ee836111a1565b9250826110fe576110fd6111fe565b5b828204905092915050565b6000611114826111a1565b915061111f836111a1565b9250817fffffffffffffffffffffffffffffffffffffffffffffffffffffffffffffffff0483118215151615611158576111576111cf565b5b828202905092915050565b600061116e82611181565b9050919050565b60008115159050919050565b600073ffffffffffffffffffffffffffffffffffffffff82169050919050565b6000819050919050565b60006111b6826111bd565b9050919050565b60006111c882611181565b9050919050565b7f4e487b7100000000000000000000000000000000000000000000000000000000600052601160045260246000fd5b7f4e487b7100000000000000000000000000000000000000000000000000000000600052601260045260246000fd5b61123681611163565b811461124157600080fd5b50565b61124d81611175565b811461125857600080fd5b50565b611264816111a1565b811461126f57600080fd5b5056fea2646970667358221220810f38b56f4363463eb897b382ab34ac04d52a624317b0a1d8ffaf27be248e8c64736f6c63430008000033",
  "immutableReferences": {},
  "source": "// SPDX-License-Identifier: GPL-3.0\r\n\r\npragma solidity ^0.8.0;\r\n\r\nimport \"./SafeMath.sol\";\r\nimport \"./Pausable.sol\";\r\nimport \"./IERC20.sol\";\r\nimport \"./ReentrancyGuard.sol\";\r\nimport \"./Initializable.sol\";\r\nimport \"./Ownable.sol\";\r\nimport \"./Context.sol\";\r\n\r\n\r\n/* @title Staking Pool Contract\r\n * Open Zeppelin Pausable  */\r\n\r\ncontract Stakingpool is Context,Initializable,ReentrancyGuard,Pausable{\r\n  \r\n  using SafeMath for uint;\r\n  \r\n  uint public StakePeriod;\r\n  \r\n  address private owner;\r\n\r\n  IERC20 public MCHToken;\r\n  IERC20 public MCFToken;\r\n  \r\n  \r\n /** @dev track total current stake yields of a user */\r\n   mapping(address => uint) public currentstakeyields;\r\n   \r\n   /* @dev track Stakedbalances of user*/\r\n  mapping(address => uint) public stakedBalances;\r\n  \r\n  /** @dev track StakedShares of user */\r\n  mapping(address => uint) public stakedShares;\r\n  \r\n  /** @dev track total staked amount of tokens of all users */\r\n  uint public totalStakedMcH;\r\n  \r\n  /** @dev track MCH value */\r\n  uint public MCH;\r\n  \r\n  /** @dev track MCF value */\r\n  uint public MCF;\r\n  \r\n  /** @dev track total staked value of all users */\r\n  uint public totalStakedamount;\r\n  \r\n /** @dev track Daily Rate of Investment */\r\n mapping(address => uint) public DROI;\r\n  \r\n /** @dev track Monthly Rate of Investment */\r\n  mapping(address => uint) public MROI;\r\n  \r\n /** @dev track Annual Rate of Investment */ \r\n  mapping(address => uint) public ROI;\r\n  \r\n  /** @dev track claimable tokens */ \r\n  mapping(address => uint) public claimable;\r\n  \r\n  /** @dev track vested tokens */  \r\n  mapping(address => uint) public vested;\r\n  \r\n   /** @dev track users\r\n    * users must be tracked in this array because mapping is not iterable */\r\n  address[] public users;\r\n  \r\n   /** @dev track index by address added to users */\r\n  mapping(address => uint) private userIndex;\r\n  \r\n    /** @dev track stake time of users */\r\n  mapping(address => uint) internal creationTime;\r\n  \r\n    /** @dev track whether users has completed stake period */\r\n  mapping(address => bool) isFinalized;\r\n  \r\n    /** @dev track staked status of users */\r\n  mapping(address => bool) Staked;\r\n  \r\n   /** @dev track staking status of users */\r\n  mapping(address => bool) isStaking;\r\n \r\n /** @dev trigger notification of staked amount\r\n    * @param sender       msg.sender for the transaction\r\n    * @param amount       msg.value for the transaction\r\n    */\r\n  event NotifyStaked(address sender, uint amount);\r\n  \r\n  /** @dev trigger notification of unstaked amount\r\n    * @param sender       msg.sender for the transaction\r\n    * @param amount       msg.value for the transaction\r\n    */\r\n  event NotifyUnStaked(address sender, uint amount);\r\n\r\n\r\n  // @dev trigger notification of claimed amount\r\n  event Notifyclaimed(address sender,uint Balance);\r\n  \r\n  // modifiers\r\n \r\n  modifier onlyOwner {\r\n        require(\r\n            msg.sender == owner,\r\n            \"Only owner can call this function.\"\r\n        );\r\n        _;\r\n    }\r\n  \r\n     /**\r\n     * @dev Throws if called before stakingperiod\r\n     */\r\n    modifier onlyAfter() {\r\n        \r\n      require(block.timestamp >= creationTime[msg.sender].add(StakePeriod) ,\"StakePeriod not completed\");\r\n      _;\r\n   }\r\n   \r\n\r\n // @dev contract Initializable\r\n    \r\n    function Initialize (address _MCHToken, address _MCFToken) public initializer {\r\n    \r\n     MCHToken = IERC20(_MCHToken);\r\n     MCFToken = IERC20(_MCFToken);\r\n     owner = msg.sender;\r\n     StakePeriod = 11 days;\r\n    \r\n    }\r\n\r\n  /** @dev test if user is in current user list\r\n    * @param user address of user to test if in list\r\n    * @return true if user is on record, otherwise false\r\n    */\r\n  function isUser(address user) internal view\r\n       returns(bool, uint256)\r\n   {\r\n       for (uint256 i = 0; i < users.length; i += 1){\r\n           if (user == users[i]) return (true, i);\r\n       }\r\n       return (false, 0);\r\n   }\r\n    \r\n    /** @dev add a user to users array\r\n    * @param user address of user to add to the list\r\n    */\r\n  \r\n   function addUser(address user) internal\r\n   {\r\n       (bool _isUser, ) = isUser(user);\r\n       if(!_isUser) users.push(user);\r\n   }\r\n   \r\n   /** @dev remove a user from users array\r\n    * @param user address of user to remove from the list\r\n    */\r\n    \r\n   function removeUser(address user) internal\r\n   {\r\n       (bool isUser, uint256 i) = isUser(user);\r\n       if(isUser){\r\n           users[i] = users[users.length - 1];\r\n           users.pop();\r\n       }\r\n   }\r\n\r\n  \r\n   /** @dev stake funds to PoolContract\r\n    */\r\n    function Approvestake(uint amount) external whenNotPaused {\r\n     \r\n      // staking amount cannot be zero\r\n      require(amount > 0, \"cannot be zero\");\r\n    \r\n      // Transfer Mock  tokens to this contract for staking\r\n      MCHToken.transferFrom(msg.sender, address(this), amount);\r\n      \r\n      // updating stakedBalances\r\n      stakedBalances[msg.sender] = stakedBalances[msg.sender].add(amount);\r\n      \r\n      // updating total stakedBalances\r\n      uint shares = (stakedBalances[msg.sender].mul(100)).div(totalStakedMcH.add(amount));\r\n      \r\n      // updating stakedShares\r\n      stakedShares[msg.sender] = stakedShares[msg.sender].add(shares);\r\n      \r\n      // Adding staker to users Array only if not staked early \r\n       if(!Staked[msg.sender]) {\r\n          \r\n            addUser(msg.sender);\r\n          \r\n             // storing the start stake time of user\r\n            creationTime[msg.sender] = block.timestamp;\r\n          \r\n        }  \r\n      \r\n      // updating status of the staking\r\n       isStaking[msg.sender] = true;\r\n       Staked[msg.sender] = true;\r\n       \r\n      \r\n      // triggering event \r\n      emit NotifyStaked(msg.sender, amount);\r\n   }\r\n}",
  "sourcePath": "E:/FOLDER/token/proxy/Stakingpool/contracts/Stakingpool.sol",
  "compiler": {
    "name": "solc",
    "version": "0.8.0+commit.c7dfd78e.Emscripten.clang"
  },
  "schemaVersion": "3.3.4",
  "updatedAt": "2021-04-23T11:34:21.175Z",
  "networkType": "ethereum",
  "devdoc": {
    "events": {
      "NotifyStaked(address,uint256)": {
        "details": "trigger notification of staked amount",
        "params": {
          "amount": "msg.value for the transaction",
          "sender": "msg.sender for the transaction"
        }
      },
      "NotifyUnStaked(address,uint256)": {
        "details": "trigger notification of unstaked amount",
        "params": {
          "amount": "msg.value for the transaction",
          "sender": "msg.sender for the transaction"
        }
      }
    },
    "kind": "dev",
    "methods": {
      "Approvestake(uint256)": {
        "details": "stake funds to PoolContract"
      },
      "paused()": {
        "details": "Returns true if the contract is paused, and false otherwise."
      }
    },
    "stateVariables": {
      "DROI": {
        "details": "track Daily Rate of Investment "
      },
      "MCF": {
        "details": "track MCF value "
      },
      "MCH": {
        "details": "track MCH value "
      },
      "MROI": {
        "details": "track Monthly Rate of Investment "
      },
      "ROI": {
        "details": "track Annual Rate of Investment "
      },
      "Staked": {
        "details": "track staked status of users "
      },
      "claimable": {
        "details": "track claimable tokens "
      },
      "creationTime": {
        "details": "track stake time of users "
      },
      "currentstakeyields": {
        "details": "track total current stake yields of a user "
      },
      "isFinalized": {
        "details": "track whether users has completed stake period "
      },
      "isStaking": {
        "details": "track staking status of users "
      },
      "stakedShares": {
        "details": "track StakedShares of user "
      },
      "totalStakedMcH": {
        "details": "track total staked amount of tokens of all users "
      },
      "totalStakedamount": {
        "details": "track total staked value of all users "
      },
      "userIndex": {
        "details": "track index by address added to users "
      },
      "users": {
        "details": "track users users must be tracked in this array because mapping is not iterable "
      },
      "vested": {
        "details": "track vested tokens "
      }
    },
    "version": 1
  },
  "userdoc": {
    "kind": "user",
    "methods": {},
    "version": 1
  }
}