{
  "contractName": "UpgradeabilityProxy",
  "abi": [
    {
      "anonymous": false,
      "inputs": [
        {
          "indexed": true,
          "internalType": "address",
          "name": "implementation",
          "type": "address"
        }
      ],
      "name": "Upgraded",
      "type": "event"
    },
    {
      "stateMutability": "payable",
      "type": "receive"
    },
    {
      "inputs": [],
      "name": "upgradeabilityProxy",
      "outputs": [],
      "stateMutability": "nonpayable",
      "type": "function"
    },
    {
      "inputs": [],
      "name": "implementation",
      "outputs": [
        {
          "internalType": "address",
          "name": "impl",
          "type": "address"
        }
      ],
      "stateMutability": "view",
      "type": "function"
    }
  ],
  "bytecode": "0x608060405234801561001057600080fd5b506101a8806100206000396000f3fe60806040526004361061002d5760003560e01c80634a7b46fe146100a45780635c60da1b146100bb5761009f565b3661009f57600061003c6100e6565b9050600073ffffffffffffffffffffffffffffffffffffffff168173ffffffffffffffffffffffffffffffffffffffff16141561007857600080fd5b60405136600082376000803683855af43d806000843e816000811461009b578184f35b8184fd5b600080fd5b3480156100b057600080fd5b506100b9610114565b005b3480156100c757600080fd5b506100d06100e6565b6040516100dd9190610125565b60405180910390f35b6000807f7050c9e0f4ca769c69bd3a8ef740bc37934f8e2c036e5a723fd8ee048ed3f8c39050805491505090565b565b61011f81610140565b82525050565b600060208201905061013a6000830184610116565b92915050565b600061014b82610152565b9050919050565b600073ffffffffffffffffffffffffffffffffffffffff8216905091905056fea26469706673582212208f4e85e0de5cb7b8f1fac0cbc3a3dc58f805e2980265b08961e631202018ad6c64736f6c63430008000033",
  "immutableReferences": {},
  "source": "// SPDX-License-Identifier: GPL-3.0\r\n\r\npragma solidity ^0.8.0;\r\n\r\nimport './Proxy.sol';\r\n\r\n/**\r\n * @title UpgradeabilityProxy\r\n * @dev This contract represents a proxy where the implementation address to which it will delegate can be upgraded\r\n */\r\ncontract UpgradeabilityProxy is Proxy {\r\n  /**\r\n   * @dev This event will be emitted every time the implementation gets upgraded\r\n   * @param implementation representing the address of the upgraded implementation\r\n   */\r\n  event Upgraded(address indexed implementation);\r\n\r\n  // Storage position of the address of the current implementation\r\n  bytes32 private constant implementationPosition = keccak256(\"org.zeppelinos.proxy.implementation\");\r\n\r\n  /**\r\n   * @dev Constructor function\r\n   */\r\n  function upgradeabilityProxy() public {}\r\n\r\n  function implementation() public virtual override view returns (address impl) {\r\n    bytes32 position = implementationPosition;\r\n    assembly {\r\n      impl := sload(position)\r\n    }\r\n  }\r\n\r\n  /**\r\n   * @dev Sets the address of the current implementation\r\n   * @param newImplementation address representing the new implementation to be set\r\n   */\r\n  function setImplementation(address newImplementation) internal {\r\n    bytes32 position = implementationPosition;\r\n    assembly {\r\n      sstore(position, newImplementation)\r\n    }\r\n  }\r\n\r\n  /**\r\n   * @dev Upgrades the implementation address\r\n   * @param newImplementation representing the address of the new implementation to be set\r\n   */\r\n  function _upgradeTo(address newImplementation) internal {\r\n    address currentImplementation = implementation();\r\n    require(currentImplementation != newImplementation);\r\n    setImplementation(newImplementation);\r\n    emit Upgraded(newImplementation);\r\n  }\r\n}\r\n",
  "sourcePath": "E:\\FOLDER\\token\\proxy\\Stakingpool\\contracts\\UpgradeabilityProxy.sol",
  "compiler": {
    "name": "solc",
    "version": "0.8.0+commit.c7dfd78e.Emscripten.clang"
  },
  "schemaVersion": "3.3.4",
  "updatedAt": "2021-04-23T11:34:17.750Z",
  "devdoc": {
    "details": "This contract represents a proxy where the implementation address to which it will delegate can be upgraded",
    "events": {
      "Upgraded(address)": {
        "details": "This event will be emitted every time the implementation gets upgraded",
        "params": {
          "implementation": "representing the address of the upgraded implementation"
        }
      }
    },
    "kind": "dev",
    "methods": {
      "implementation()": {
        "details": "Tells the address of the implementation where every call will be delegated.",
        "returns": {
          "impl": "address of the implementation to which it will be delegated"
        }
      },
      "upgradeabilityProxy()": {
        "details": "Constructor function"
      }
    },
    "title": "UpgradeabilityProxy",
    "version": 1
  },
  "userdoc": {
    "kind": "user",
    "methods": {},
    "version": 1
  }
}